S010000056455253494F4E342E73726563BA
S11300000C943E000C945B000C945B000C945B001D
S11300100C945B000C94E3020C945B000C945B0066
S11300200C945B000C945B000C945B000C945B00E0
S11300300C945B000C945B000C945B000C945B00D0
S11300400C945B000C945B000C945B000C945B00C0
S11300500C945B000C945B000C945B000C945B00B0
S11300600C945B000C945B000C945B000C945B00A0
S11300700C945B000C945B000C945B0011241FBE79
S1130080CFEFD8E0DEBFCDBF11E0A0E0B1E0EEEAF3
S1130090F5E102C005900D92A03EB107D9F722E028
S11300A0A0EEB1E001C01D92A135B207E1F70E94B4
S11300B09F010C94D50A0C94000084EA8093BC0040
S11300C08091BC008823E4F78091B900887F08956B
S11300D084E98093BC008091BC0084FDFCCF08952A
S11300E08093BB0084E88093BC008091BC0088238B
S11300F0E4F78091B900887F0895CF93DF93C82FE8
S1130100D62F0E945D00883099F480EC0E94700024
S1130110883181F48C2F0E947000883269F48D2F0D
S11301200E947000883251F40E94680080E007C089
S113013081E005C082E003C083E001C084E0DF9178
S1130140CF9108958CE58093B8001092B9008FEF99
S11301508093BB000895CF93DF93D82FC62F0E94BE
S11301605D008D2F0E94700080E00E9470008C2F33
S11301700E9470000E946800DF91CF910895CF9390
S1130180DF93D82FC62F0E945D008D2F0E94700030
S113019080E40E9470008C2F0E9470000E9468000E
S11301A0DF91CF910895AF92BF92CF92DF92EF92F9
S11301B0FF920F931F93CF93DF936C01A62EB72E5C
S11301C088E790E00E94AB00EA2CFB2CC0E0D0E072
S11301D026C02097E1F0CE016AE070E00E941A0781
S11301E0892BA9F480EEE816F10449F461E070E08B
S11301F088E790E00E94AB00EA2CFB2C03C0E0E20D
S1130200EE0EF11CB70188E790E00E94AB00F80104
S1130210608170E088E790E00E94BF00219686012B
S11302200C0F1D1FF80180818111D3CFDF91CF9175
S11302301F910F91FF90EF90DF90CF90BF90AF9000
S113024008958130910599F46130710509F444C031
S11302506230710509F443C06430710509F442C089
S11302606830710509F041C08AE090E00895823059
S1130270910579F461307105D9F162307105D9F1D4
S113028064307105D9F168307105D9F58BE090E0DF
S113029008958430910579F461307105A9F16230D3
S11302A07105A9F164307105A9F168307105A9F5EA
S11302B08CE090E00895089799F56130710599F103
S11302C06230710599F16430710599F168307105F6
S11302D099F58DE090E0089581E090E0089582E042
S11302E090E0089583E090E0089580E190E008951F
S11302F084E090E0089585E090E0089586E090E041
S1130300089580E190E0089587E090E0089588E002
S113031090E0089589E090E0089580E190E00895E8
S113032080E190E008958FE090E0089580E090E00F
S113033008958EE090E0089580E190E00895CF93D1
S1130340DF93CDB7DEB7C65CD1090FB6F894DEBF34
S11303500FBECDBF8FEF81B98FE097E20197F1F720
S113036000C0000082B182B99FEFA1EEB4E09150C9
S1130370A040B040E1F700C0000082B1816082B9C2
S11303808FE097E20197F1F700C000000E94A200FD
S113039060E080E10E947D0061E070E088E790E029
S11303A00E94AB006AE370E088E790E00E94AB0033
S11303B069E070E088E790E00E94AB0066E070E0DE
S11303C088E790E00E94AB006EE170E088E790E07F
S11303D00E94AB0069E370E088E790E00E94AB0004
S11303E06BE170E088E790E00E94AB006EE670E09D
S11303F088E790E00E94AB0067E570E088E790E052
S11304000E94AB006AE770E088E790E00E94AB00CE
S113041068E370E088E790E00E94AB006FE070E072
S113042088E790E00E94AB0061E070E088E790E02C
S11304300E94AB0080E48AB980EF84B982E08093A3
S113044068008FE080936C0078948AEC91E09F932D
S11304508F930E94E7070F900F9080EF85B98091EA
S1130460020190910301892B09F47EC060E080E1D0
S11304700E947D0061E070E088E790E00E94AB009C
S11304808091E6019091E701892B39F060EE70E0EC
S113049088EE91E00E94D30031C08E010C591F4FA9
S11304A087E0E4E0F1E0D80101900D928A95E1F74C
S11304B0F80137968CE5DF011D928A95E9F74AE049
S11304C050E0BE016F5F7F4F8091E4019091E501A0
S11304D00E94AF07BE016F5F7F4FC8010E94A4074F
S11304E0F80101900020E9F731978DE490E09183C1
S11304F0808360E870E0C8010E94D30087E0E7E6EB
S1130500F1E0DE01119601900D928A95E1F7FE016A
S113051038968CE5DF011D928A95E9F78091E20116
S11305209091E301892B59F0379701900020E9F766
S1130530319784E598E59183808312820BC0FE0194
S1130540319601900020E9F7319782E598E591838F
S11305508083128260EA70E0CE0101960E94D3008B
S113056010920301109202018091E0019091E10147
S1130570892B81F0A091E401B091E50120E432E4FB
S11305804FE050E00E945B070E94FA041092E101E0
S11305901092E0018091000190910101892B09F4EE
S11305A05CCF8BB18F7B2091E2013091E301232B4F
S11305B011F090E001C090E4892B8BB910920101F5
S11305C0109200014ACF1F920F920FB60F9211247E
S11305D02F933F934F935F936F937F938F939F9347
S11305E0AF93BF93EF93FF93CF93DF93CDB7DEB772
S11305F02A97DEBFCDBF8FE59AEE0197F1F700C0D1
S1130600000083B18F7021F48BB1837C8BB99CC0C3
S113061083B18F7090E02FE024B925B9EFE5FAEEAD
S11306203197F1F700C0000023B1207F49F480EF37
S113063084B985B1806F85B98BB1837C8BB984C053
S113064063B162956F7070E00E9421018A30910558
S113065084F52091E6013091E701232BA9F44AE0C7
S113066050E0BE016F5F7F4F0E94AF07BE016F5F16
S11306707F4F88EE91E00E94A40781E090E0909380
S1130680E7018093E6010EC04AE050E0BE016F5FCF
S11306907F4F0E94AF07BE016F5F7F4F88EE91E0EE
S11306A00E94A40781E090E09093030180930201EB
S11306B046C08D30910569F41092E7011092E6016D
S11306C01092E80181E090E090930301809302018D
S11306D036C08C309105C9F41092E7011092E601FE
S11306E088EE91E00E9486079093E5018093E401EF
S11306F01092E80181E090E090930301809302015D
S11307009093E1018093E0011AC00B97C1F481E05A
S113071090E02091E2013091E301232B11F080E07D
S113072090E09093E3018093E20181E090E0909364
S1130730030180930201909301018093000180EFF3
S113074084B985B1806F85B92A960FB6F894DEBF57
S11307500FBECDBFDF91CF91FF91EF91BF91AF91CC
S11307609F918F917F916F915F914F913F912F91C5
S11307700F900FBE0F901F9018954F925F926F923B
S11307807F928F929F92AF92BF92CF92DF92EF921D
S1130790FF920F931F93CF93DF9300D000D01F924B
S11307A0CDB7DEB78D83C62E49015A012701380122
S11307B0CA01B9010E940F0669837A838B839C83E3
S11307C0C801B7010E940F069B01AC0169817A81BF
S11307D08B819C810E946E0520E030E040E053E470
S11307E00E949D060E94E005D12CE12CF12CCC0C3A
S11307F0DD1CEE1CFF1CCC0CDD1CEE1CFF1CCC0C09
S1130800DD1CEE1CFF1CCC0CDD1CEE1CFF1CCC0CF8
S1130810DD1CEE1CFF1CCC0CDD1CEE1CFF1CCC0CE8
S1130820DD1CEE1CFF1CC60ED71EE81EF91E22E0BE
S1130830D21AE108F108880C991CAA1CBB1C880C6C
S1130840991CAA1CBB1C880C991CAA1CBB1C880CD8
S1130850991CAA1CBB1C880C991CAA1CBB1C880CC8
S1130860991CAA1CBB1C880C991CAA1CBB1CA301A8
S113087092010E940A07861A970AA80AB90A652DE6
S11308808D810E947D00642D8D818F5F0E947D008B
S1130890D701C60188279927A370BB27BD018827E4
S11308A099278D818E5F0E947D006D2D8D818D5FD6
S11308B00E947D006C2D8D818C5F0E947D004424FC
S11308C055248FE068227724032E3CE076946794C5
S11308D0579447943A95D1F7302DD501C401882710
S11308E09927AF70BB27642D6A2B8D818B5F0E9483
S11308F07D00692D8D818A5F0E947D00682D8D8128
S1130900895F0E947D000F900F900F900F900F90C1
S1130910DF91CF911F910F91FF90EF90DF90CF90D7
S1130920BF90AF909F908F907F906F905F904F900B
S11309300895CF92DF92EF92FF92CF93DF93C82F67
S1130940D22F6A017B0184E0C81AD108E1088EEF36
S1130950F80ACC0CDD1CEE1CFF1CCC0CDD1CEE1CC0
S1130960FF1CCC0CDD1CEE1CFF1CCC0CDD1CEE1C97
S1130970FF1CCC0CDD1CEE1CFF1CCC0CDD1CEE1C87
S1130980FF1CCC0CDD1CEE1CFF1C60E08C2F0E94B5
S11309907D0061E081E08C0F0E947D00D701C601DB
S11309A088279927A370BB276D2F6A2B82E08C0FB1
S11309B00E947D006D2D83E08C0F0E947D006C2DC4
S11309C084E08C0F0E947D0060E085E08C0F0E9423
S11309D07D0060E086E08C0F0E947D0060E087E08F
S11309E08C0F0E947D00DF91CF91FF90EF90DF90FC
S11309F0CF9008958F929F92AF92BF92CF92DF9241
S1130A00EF92FF920F931F936B017C0160E079EEEC
S1130A1084EA95E3A70196010E942E0749015A0131
S1130A2020FF05C081E0881A9108A108B108A5013A
S1130A309401C701B6010E940A0720E438E74DE794
S1130A4051E00E942E07D22E0E940F0620EF3FEFA6
S1130A504FE759E40E949D0620E23CEB4EEB5BE439
S1130A600E946E050E94E0059B01AC01EE24EA940D
S1130A70FE2C0FE010E06D2D8AE10E94BD0320E002
S1130A80B501A4018AE20E94990420E0B501A40101
S1130A9082E30E9499046CEA81EB0E947D006FE47A
S1130AA080E10E947D006FE481E10E947D0060E0AE
S1130AB085EA0E947D00682D86EA0E947D006CEA2A
S1130AC081EB0E947D001F910F91FF90EF90DF90CA
S1130AD0CF90BF90AF909F908F9008950E94820511
S1130AE00C9463060E945C0658F00E94550640F080
S1130AF029F45F3F29F00C944C0651110C9497068D
S1130B000C9452060E94740668F39923B1F355239A
S1130B1091F3951B550BBB27AA276217730784070C
S1130B2038F09F5F5F4F220F331F441FAA1FA9F3A2
S1130B3035D00E2E3AF0E0E832D091505040E69590
S1130B40001CCAF72BD0FE2F29D0660F771F881FF1
S1130B50BB1F261737074807AB07B0E809F0BB0BE4
S1130B60802DBF01FF2793585F4F3AF09E3F5105F8
S1130B7078F00C944C060C9497065F3FE4F3983E8F
S1130B80D4F3869577956795B795F7959F5FC9F7E1
S1130B90880F911D9695879597F90895E1E0660F62
S1130BA0771F881FBB1F621773078407BA0720F0DB
S1130BB0621B730B840BBA0BEE1F88F7E095089544
S1130BC00E947C0688F09F5798F0B92F9927B75157
S1130BD0B0F0E1F0660F771F881F991F1AF0BA95DD
S1130BE0C9F714C0B13091F00E949606B1E008959F
S1130BF00C949606672F782F8827B85F39F0B93F91
S1130C00CCF3869577956795B395D9F73EF490958F
S1130C108095709561957F4F8F4F9F4F0895E8940D
S1130C2009C097FB3EF490958095709561957F4F30
S1130C308F4F9F4F9923A9F0F92F96E9BB279395DE
S1130C40F695879577956795B795F111F8CFFAF4EE
S1130C50BB0F11F460FF1BC06F5F7F4F8F4F9F4F1F
S1130C6016C0882311F096E911C0772321F09EE87D
S1130C70872F762F05C0662371F096E8862F70E0E3
S1130C8060E02AF09A95660F771F881FDAF7880FBD
S1130C909695879597F9089597F99F6780E870E08E
S1130CA060E008959FEF80EC089500240A941616DE
S1130CB0170618060906089500240A941216130646
S1130CC0140605060895092E0394000C11F48823D4
S1130CD052F0BB0F40F4BF2B11F460FF04C06F5FF0
S1130CE07F4F8F4F9F4F089557FD9058440F551FC6
S1130CF059F05F3F71F04795880F97FB991F61F09A
S1130D009F3F79F087950895121613061406551F10
S1130D10F2CF4695F1DF08C0161617061806991F7C
S1130D20F1CF86957105610508940895E894BB2771
S1130D3066277727CB0197F908950E94B0060C9493
S1130D4063060E94550638F00E945C0620F0952345
S1130D5011F00C944C060C94520611240C94970632
S1130D600E94740670F3959FC1F3950F50E0551FD0
S1130D70629FF001729FBB27F00DB11D639FAA27EC
S1130D80F00DB11DAA1F649F6627B00DA11D661F3B
S1130D90829F2227B00DA11D621F739FB00DA11D5C
S1130DA0621F839FA00D611D221F749F3327A00D16
S1130DB0611D231F849F600D211D822F762F6A2FB2
S1130DC011249F5750409AF0F1F088234AF0EE0F17
S1130DD0FF1FBB1F661F771F881F91505040A9F744
S1130DE09E3F510580F00C944C060C9497065F3F8F
S1130DF0E4F3983ED4F3869577956795B795F79580
S1130E00E7959F5FC1F7FE2B880F911D96958795F7
S1130E1097F90895DB018F939F930E945007BF9128
S1130E20AF91A29F800D911DA39F900DB29F900D35
S1130E301124089597FB072E16F4009407D077FD2C
S1130E4009D00E94630707FC05D03EF49095819574
S1130E509F4F0895709561957F4F0895A1E21A2ED2
S1130E60AA1BBB1BFD010DC0AA1FBB1FEE1FFF1F4A
S1130E70A217B307E407F50720F0A21BB30BE40B9A
S1130E80F50B661F771F881F991F1A9469F76095E1
S1130E907095809590959B01AC01BD01CF0108959B
S1130EA00E947707A59F900DB49F900DA49F800D7D
S1130EB0911D11240895B7FF0C9450070E94500708
S1130EC0821B930B0895AA1BBB1B51E107C0AA1FE9
S1130ED0BB1FA617B70710F0A61BB70B881F991FD7
S1130EE05A95A9F780959095BC01CD010895A29FCC
S1130EF0B001B39FC001A39F700D811D1124911DEA
S1130F00B29F700D811D1124911D0895FC01882745
S1130F109927E89421912032E9F3293010F02E30FA
S1130F20C8F32B3241F02D3239F4689404C00E9486
S1130F30C507820F911D219120532A30C0F31EF45E
S1130F40909581959F4F0895FB01DC010D90002041
S1130F50E9F7119701900D920020E1F708954532C9
S1130F60510520F4423010F00C94BA07FB011082B2
S1130F70CB010895BB274A3031F4992322F4BDE212
S1130F80909581959F4F0C94CE077AE0979F902D72
S1130F90879F802D910D11240895BB27FB015527B0
S1130FA0AA27880F991FAA1FA41710F0A41B8395C2
S1130FB05051B9F7A05DAA3308F0A95DA193009739
S1130FC079F7B111B1931192CB010C94F409A0E01B
S1130FD0B0E0EDEEF7E00C94AE0AAE014B5F5F4F6C
S1130FE0FA0161917191AF0180914D0290914E028D
S1130FF00E94FD07E2E00C94CA0AABE0B0E0E3E033
S1131000F8E00C949E0A6C017B018A01FC011782B2
S11310101682838181FFCCC1CE0101963C01F60189
S11310209381F70193FD859193FF81917F0188233B
S113103009F4BAC1853239F493FD859193FF819106
S11310407F01853229F4B60190E00E94040AE7CFBB
S1131050912C212C312CFFE1F315D8F08B3279F04F
S113106038F4803279F08332A1F4232D20611DC03D
S11310708D3261F0803369F4232D216016C0832DF5
S11310808260382EE32DE4603E2E2AC0F32DF860F2
S11310901DC037FC2DC020ED280F2A3040F08E32C1
S11310A0B9F436FC81C1232D2064322E19C036FEDA
S11310B006C08AE0989E200D1124922E11C0EAE009
S11310C02E9E200D1124222EF32DF0623F2E08C0F7
S11310D08C3621F4832D8068382E02C0883641F482
S11310E0F70193FD859193FF81917F018111B3CF26
S11310F0982F9F7D9554933028F40C5F1F4F9FE3E6
S113110099830DC0833631F0833771F0833509F04C
S113111059C021C0F801808189830E5F1F4F882444
S11311208394912C530113C02801F2E04F0E511CFB
S1131130F801A080B18036FE03C0692D70E002C0C2
S11311406FEF7FEFC5010E94E9094C018201F32D85
S1131150FF773F2E16C0280122E0420E511CF801F1
S1131160A080B18036FE03C0692D70E002C06FEF2D
S11311707FEFC5010E94DE094C01F32DF0683F2E7C
S1131180820133FC1BC0822D90E088169906B0F4CE
S1131190B60180E290E00E94040A2A94F4CFF5019B
S11311A037FC859137FE81915F01B60190E00E9482
S11311B0040A21102A9421E0821A910881149104CE
S11311C071F7E8C0843611F0893641F5F80137FE2D
S11311D007C060817181828193810C5F1F4F08C0B9
S11311E060817181072E000C880B990B0E5F1F4FD5
S11311F0F32DFF763F2E97FF09C09095809570954B
S113120061957F4F8F4F9F4FF0683F2E2AE030E06B
S1131210A3010E94400A882E861845C0853731F400
S1131220232D2F7EB22E2AE030E025C0932D997F06
S1131230B92E8F36C1F018F4883579F0B5C08037EF
S113124019F0883721F0B0C0E92FE061BE2EB4FE5A
S11312500DC0FB2DF460BF2E09C034FE0AC0292F37
S11312602660B22E06C028E030E005C020E130E060
S113127002C020E132E0F801B7FE07C0608171814D
S1131280828193810C5F1F4F06C06081718180E071
S113129090E00E5F1F4FA3010E94400A882E86181B
S11312A0FB2DFF773F2E36FE0DC0232D2E7FA22E61
S11312B0891458F434FE0BC032FC09C0832D8E7E91
S11312C0A82E05C0B82CA32C03C0B82C01C0B92C7F
S11312D0A4FE0FC0FE01E80DF11D8081803321F4CE
S11312E09A2D997EA92E09C0A2FE06C0B394B39488
S11312F004C08A2D867809F0B394A3FC11C0A0FE23
S113130006C0B21488F4280C922C9B180EC0B21498
S113131060F4B60180E290E00E94040AB394F7CF2F
S1131320B21418F42B1802C0982C212CA4FE10C05F
S1131330B60180E390E00E94040AA2FE17C0A1FC5B
S113134003C088E790E002C088E590E0B6010CC0D5
S11313508A2D867859F0A1FE02C08BE201C080E29A
S1131360A7FC8DE2B60190E00E94040A891438F4C7
S1131370B60180E390E00E94040A9A94F7CF8A941D
S1131380F301E80DF11D8081B60190E00E94040A8A
S11313908110F5CF222009F442CEB60180E290E01C
S11313A00E94040A2A94F6CFF6018681978102C02E
S11313B08FEF9FEF2B96E2E10C94BA0AFC010590A3
S11313C0615070400110D8F7809590958E0F9F1F43
S11313D00895FC016150704001900110D8F7809588
S11313E090958E0F9F1F0895DC01FC01672F71916A
S11313F07723E1F7329704C07C916D9370836291F7
S1131400AE17BF07C8F308950F931F93CF93DF93CD
S1131410FB01238121FD03C08FEF9FEF2CC022FF2E
S113142016C046815781248135814217530744F4FD
S1131430A081B1819D012F5F3F4F318320838C9325
S1131440268137812F5F3F4F3783268314C08B015A
S1131450EC01FB010084F185E02D0995892BE1F66F
S1131460D80116968D919C911797019617969C9387
S11314708E931697CE01DF91CF911F910F9108950E
S1131480FA01AA27283051F1203181F1E8946F93B1
S11314906E7F6E5F7F4F8F4F9F4FAF4FB1E03ED057
S11314A0B4E03CD0670F781F891F9A1FA11D680FF5
S11314B0791F8A1F911DA11D6A0F711D811D911D28
S11314C0A11D20D009F468943F912AE0269F11249D
S11314D03019305D3193DEF6CF010895462F477001
S11314E0405D4193B3E00FD0C9F7F6CF462F4F705C
S11314F0405D4A3318F0495D31FD4052419302D0BA
S1131500A9F7EACFB4E0A69597958795779567955F
S1131510BA95C9F700976105710508959B01AC015F
S11315200A2E06945795479537952795BA95C9F786
S1131530620F731F841F951FA01D08952F923F9261
S11315404F925F926F927F928F929F92AF92BF92CF
S1131550CF92DF92EF92FF920F931F93CF93DF937B
S1131560CDB7DEB7CA1BDB0B0FB6F894DEBF0FBED8
S1131570CDBF09942A88398848885F846E847D8425
S11315808C849B84AA84B984C884DF80EE80FD8027
S11315900C811B81AA81B981CE0FD11D0FB6F8949D
S11115A0DEBF0FBECDBFED010895F894FFCF5E
S11315AE01000100465245513A200000000000009F
S11315BE0000000000000000000000000000000019
S11315CE0000000000000000000000000000000009
S11315DE00000000000000000000000000000000F9
S11315EE00000000000000000000000000000000E9
S11315FE00000000000000000000000000000000D9
S113160E000000000000004D4F44453A2000000049
S113161E00000000000000000000000000000000B8
S113162E00000000000000000000000000000000A8
S113163E0000000000000000000000000000000098
S113164E0000000000000000000000000000000088
S113165E0000000000000000000000000000000078
S113166E00000000000000000000656E746572202A
S113167E746865207768696C65206C6F6F70000004
S9030000FC
